{
  "address": "0x3C22C66343db04F6038bad2726700B4Cb217A674",
  "abi": [
    {
      "inputs": [],
      "stateMutability": "nonpayable",
      "type": "constructor"
    },
    {
      "anonymous": false,
      "inputs": [
        {
          "indexed": true,
          "internalType": "address",
          "name": "owner",
          "type": "address"
        },
        {
          "indexed": true,
          "internalType": "address",
          "name": "approved",
          "type": "address"
        },
        {
          "indexed": true,
          "internalType": "uint256",
          "name": "tokenId",
          "type": "uint256"
        }
      ],
      "name": "Approval",
      "type": "event"
    },
    {
      "anonymous": false,
      "inputs": [
        {
          "indexed": true,
          "internalType": "address",
          "name": "owner",
          "type": "address"
        },
        {
          "indexed": true,
          "internalType": "address",
          "name": "operator",
          "type": "address"
        },
        {
          "indexed": false,
          "internalType": "bool",
          "name": "approved",
          "type": "bool"
        }
      ],
      "name": "ApprovalForAll",
      "type": "event"
    },
    {
      "anonymous": false,
      "inputs": [
        {
          "indexed": true,
          "internalType": "address",
          "name": "from",
          "type": "address"
        },
        {
          "indexed": true,
          "internalType": "address",
          "name": "to",
          "type": "address"
        },
        {
          "indexed": true,
          "internalType": "uint256",
          "name": "tokenId",
          "type": "uint256"
        }
      ],
      "name": "Transfer",
      "type": "event"
    },
    {
      "inputs": [
        {
          "internalType": "address",
          "name": "to",
          "type": "address"
        },
        {
          "internalType": "uint256",
          "name": "tokenId",
          "type": "uint256"
        }
      ],
      "name": "approve",
      "outputs": [],
      "stateMutability": "nonpayable",
      "type": "function"
    },
    {
      "inputs": [
        {
          "internalType": "address",
          "name": "owner",
          "type": "address"
        }
      ],
      "name": "balanceOf",
      "outputs": [
        {
          "internalType": "uint256",
          "name": "",
          "type": "uint256"
        }
      ],
      "stateMutability": "view",
      "type": "function"
    },
    {
      "inputs": [],
      "name": "getAllURIs",
      "outputs": [
        {
          "internalType": "string[]",
          "name": "",
          "type": "string[]"
        }
      ],
      "stateMutability": "view",
      "type": "function"
    },
    {
      "inputs": [
        {
          "internalType": "uint256",
          "name": "tokenId",
          "type": "uint256"
        }
      ],
      "name": "getApproved",
      "outputs": [
        {
          "internalType": "address",
          "name": "",
          "type": "address"
        }
      ],
      "stateMutability": "view",
      "type": "function"
    },
    {
      "inputs": [
        {
          "internalType": "address",
          "name": "owner",
          "type": "address"
        },
        {
          "internalType": "address",
          "name": "operator",
          "type": "address"
        }
      ],
      "name": "isApprovedForAll",
      "outputs": [
        {
          "internalType": "bool",
          "name": "",
          "type": "bool"
        }
      ],
      "stateMutability": "view",
      "type": "function"
    },
    {
      "inputs": [
        {
          "internalType": "uint8",
          "name": "_tokenType",
          "type": "uint8"
        }
      ],
      "name": "mint",
      "outputs": [],
      "stateMutability": "nonpayable",
      "type": "function"
    },
    {
      "inputs": [],
      "name": "name",
      "outputs": [
        {
          "internalType": "string",
          "name": "",
          "type": "string"
        }
      ],
      "stateMutability": "view",
      "type": "function"
    },
    {
      "inputs": [
        {
          "internalType": "uint256",
          "name": "tokenId",
          "type": "uint256"
        }
      ],
      "name": "ownerOf",
      "outputs": [
        {
          "internalType": "address",
          "name": "",
          "type": "address"
        }
      ],
      "stateMutability": "view",
      "type": "function"
    },
    {
      "inputs": [
        {
          "internalType": "address",
          "name": "from",
          "type": "address"
        },
        {
          "internalType": "address",
          "name": "to",
          "type": "address"
        },
        {
          "internalType": "uint256",
          "name": "tokenId",
          "type": "uint256"
        }
      ],
      "name": "safeTransferFrom",
      "outputs": [],
      "stateMutability": "nonpayable",
      "type": "function"
    },
    {
      "inputs": [
        {
          "internalType": "address",
          "name": "from",
          "type": "address"
        },
        {
          "internalType": "address",
          "name": "to",
          "type": "address"
        },
        {
          "internalType": "uint256",
          "name": "tokenId",
          "type": "uint256"
        },
        {
          "internalType": "bytes",
          "name": "data",
          "type": "bytes"
        }
      ],
      "name": "safeTransferFrom",
      "outputs": [],
      "stateMutability": "nonpayable",
      "type": "function"
    },
    {
      "inputs": [
        {
          "internalType": "address",
          "name": "operator",
          "type": "address"
        },
        {
          "internalType": "bool",
          "name": "approved",
          "type": "bool"
        }
      ],
      "name": "setApprovalForAll",
      "outputs": [],
      "stateMutability": "nonpayable",
      "type": "function"
    },
    {
      "inputs": [
        {
          "internalType": "bytes4",
          "name": "interfaceId",
          "type": "bytes4"
        }
      ],
      "name": "supportsInterface",
      "outputs": [
        {
          "internalType": "bool",
          "name": "",
          "type": "bool"
        }
      ],
      "stateMutability": "view",
      "type": "function"
    },
    {
      "inputs": [],
      "name": "symbol",
      "outputs": [
        {
          "internalType": "string",
          "name": "",
          "type": "string"
        }
      ],
      "stateMutability": "view",
      "type": "function"
    },
    {
      "inputs": [
        {
          "internalType": "uint256",
          "name": "index",
          "type": "uint256"
        }
      ],
      "name": "tokenByIndex",
      "outputs": [
        {
          "internalType": "uint256",
          "name": "",
          "type": "uint256"
        }
      ],
      "stateMutability": "view",
      "type": "function"
    },
    {
      "inputs": [],
      "name": "tokenCounters",
      "outputs": [
        {
          "internalType": "uint256",
          "name": "",
          "type": "uint256"
        }
      ],
      "stateMutability": "view",
      "type": "function"
    },
    {
      "inputs": [
        {
          "internalType": "address",
          "name": "owner",
          "type": "address"
        },
        {
          "internalType": "uint256",
          "name": "index",
          "type": "uint256"
        }
      ],
      "name": "tokenOfOwnerByIndex",
      "outputs": [
        {
          "internalType": "uint256",
          "name": "",
          "type": "uint256"
        }
      ],
      "stateMutability": "view",
      "type": "function"
    },
    {
      "inputs": [
        {
          "internalType": "uint256",
          "name": "tokenId",
          "type": "uint256"
        }
      ],
      "name": "tokenURI",
      "outputs": [
        {
          "internalType": "string",
          "name": "",
          "type": "string"
        }
      ],
      "stateMutability": "view",
      "type": "function"
    },
    {
      "inputs": [],
      "name": "totalSupply",
      "outputs": [
        {
          "internalType": "uint256",
          "name": "",
          "type": "uint256"
        }
      ],
      "stateMutability": "view",
      "type": "function"
    },
    {
      "inputs": [
        {
          "internalType": "address",
          "name": "from",
          "type": "address"
        },
        {
          "internalType": "address",
          "name": "to",
          "type": "address"
        },
        {
          "internalType": "uint256",
          "name": "tokenId",
          "type": "uint256"
        }
      ],
      "name": "transferFrom",
      "outputs": [],
      "stateMutability": "nonpayable",
      "type": "function"
    },
    {
      "inputs": [
        {
          "internalType": "uint256",
          "name": "",
          "type": "uint256"
        }
      ],
      "name": "uri",
      "outputs": [
        {
          "internalType": "string",
          "name": "",
          "type": "string"
        }
      ],
      "stateMutability": "view",
      "type": "function"
    },
    {
      "inputs": [],
      "name": "uriBase",
      "outputs": [
        {
          "internalType": "string",
          "name": "",
          "type": "string"
        }
      ],
      "stateMutability": "view",
      "type": "function"
    },
    {
      "inputs": [],
      "name": "uriExtention",
      "outputs": [
        {
          "internalType": "string",
          "name": "",
          "type": "string"
        }
      ],
      "stateMutability": "view",
      "type": "function"
    },
    {
      "inputs": [
        {
          "internalType": "uint256",
          "name": "",
          "type": "uint256"
        }
      ],
      "name": "urisTypes",
      "outputs": [
        {
          "internalType": "string",
          "name": "",
          "type": "string"
        }
      ],
      "stateMutability": "view",
      "type": "function"
    }
  ],
  "transactionHash": "0xc04bc26a76c1e286f9caaddfe0703105be72f612e838f12986347151537decf0",
  "args": [],
  "numDeployments": 1,
  "solcInputHash": "030136c1d514d2e1d4e3691c1e62f622",
  "bytecode": "0x6080604052604051806080016040528060518152602001620038bd60519139600b90805190602001906200003592919062000205565b506040518060400160405280600581526020017f2e6a736f6e000000000000000000000000000000000000000000000000000000815250600c90805190602001906200008392919062000205565b5060405180606001604052806040518060400160405280600681526020017f706961696331000000000000000000000000000000000000000000000000000081525081526020016040518060400160405280600681526020017f706961696332000000000000000000000000000000000000000000000000000081525081526020016040518060400160405280600681526020017f7069616963330000000000000000000000000000000000000000000000000000815250815250600e9060036200015092919062000296565b503480156200015e57600080fd5b506040518060400160405280600b81526020017f504941494320546f6b656e0000000000000000000000000000000000000000008152506040518060400160405280600581526020017f50494149430000000000000000000000000000000000000000000000000000008152508160009080519060200190620001e392919062000205565b508060019080519060200190620001fc92919062000205565b505050620003ef565b8280546200021390620003b9565b90600052602060002090601f01602090048101928262000237576000855562000283565b82601f106200025257805160ff191683800117855562000283565b8280016001018555821562000283579182015b828111156200028257825182559160200191906001019062000265565b5b509050620002929190620002fd565b5090565b828054828255906000526020600020908101928215620002ea579160200282015b82811115620002e9578251829080519060200190620002d892919062000205565b5091602001919060010190620002b7565b5b509050620002f991906200031c565b5090565b5b8082111562000318576000816000905550600101620002fe565b5090565b5b8082111562000340576000818162000336919062000344565b506001016200031d565b5090565b5080546200035290620003b9565b6000825580601f1062000366575062000387565b601f016020900490600052602060002090810190620003869190620002fd565b5b50565b7f4e487b7100000000000000000000000000000000000000000000000000000000600052602260045260246000fd5b60006002820490506001821680620003d257607f821691505b60208210811415620003e957620003e86200038a565b5b50919050565b6134be80620003ff6000396000f3fe608060405234801561001057600080fd5b506004361061014d5760003560e01c80636352211e116100c3578063c87b56dd1161007c578063c87b56dd146103c2578063da815b8e146103f2578063e985e9c514610410578063f07fdf6914610440578063f17eaebe1461045e578063fbca0ce11461048e5761014d565b80636352211e146102f05780636ecd23061461032057806370a082311461033c57806395d89b411461036c578063a22cb4651461038a578063b88d4fde146103a65761014d565b80630e89341c116101155780630e89341c1461020a57806318160ddd1461023a57806323b872dd146102585780632f745c591461027457806342842e0e146102a45780634f6ccce7146102c05761014d565b806301ffc9a71461015257806306fdde0314610182578063071119c8146101a0578063081812fc146101be578063095ea7b3146101ee575b600080fd5b61016c6004803603810190610167919061228a565b6104ac565b60405161017991906122d2565b60405180910390f35b61018a610526565b6040516101979190612386565b60405180910390f35b6101a86105b8565b6040516101b59190612386565b60405180910390f35b6101d860048036038101906101d391906123de565b610646565b6040516101e5919061244c565b60405180910390f35b61020860048036038101906102039190612493565b61068c565b005b610224600480360381019061021f91906123de565b6107a4565b6040516102319190612386565b60405180910390f35b610242610844565b60405161024f91906124e2565b60405180910390f35b610272600480360381019061026d91906124fd565b610851565b005b61028e60048036038101906102899190612493565b6108b1565b60405161029b91906124e2565b60405180910390f35b6102be60048036038101906102b991906124fd565b610956565b005b6102da60048036038101906102d591906123de565b610976565b6040516102e791906124e2565b60405180910390f35b61030a600480360381019061030591906123de565b6109e7565b604051610317919061244c565b60405180910390f35b61033a60048036038101906103359190612589565b610a99565b005b610356600480360381019061035191906125b6565b610bce565b60405161036391906124e2565b60405180910390f35b610374610c86565b6040516103819190612386565b60405180910390f35b6103a4600480360381019061039f919061260f565b610d18565b005b6103c060048036038101906103bb9190612784565b610d2e565b005b6103dc60048036038101906103d791906123de565b610d90565b6040516103e99190612386565b60405180910390f35b6103fa610e3e565b6040516104079190612913565b60405180910390f35b61042a60048036038101906104259190612935565b610f28565b60405161043791906122d2565b60405180910390f35b610448610fbc565b60405161045591906124e2565b60405180910390f35b610478600480360381019061047391906123de565b610fc2565b6040516104859190612386565b60405180910390f35b61049661106e565b6040516104a39190612386565b60405180910390f35b60007f780e9d63000000000000000000000000000000000000000000000000000000007bffffffffffffffffffffffffffffffffffffffffffffffffffffffff1916827bffffffffffffffffffffffffffffffffffffffffffffffffffffffff1916148061051f575061051e826110fc565b5b9050919050565b606060008054610535906129a4565b80601f0160208091040260200160405190810160405280929190818152602001828054610561906129a4565b80156105ae5780601f10610583576101008083540402835291602001916105ae565b820191906000526020600020905b81548152906001019060200180831161059157829003601f168201915b5050505050905090565b600c80546105c5906129a4565b80601f01602080910402602001604051908101604052809291908181526020018280546105f1906129a4565b801561063e5780601f106106135761010080835404028352916020019161063e565b820191906000526020600020905b81548152906001019060200180831161062157829003601f168201915b505050505081565b6000610651826111de565b6004600083815260200190815260200160002060009054906101000a900473ffffffffffffffffffffffffffffffffffffffff169050919050565b6000610697826109e7565b90508073ffffffffffffffffffffffffffffffffffffffff168373ffffffffffffffffffffffffffffffffffffffff161415610708576040517f08c379a00000000000000000000000000000000000000000000000000000000081526004016106ff90612a48565b60405180910390fd5b8073ffffffffffffffffffffffffffffffffffffffff16610727611229565b73ffffffffffffffffffffffffffffffffffffffff161480610756575061075581610750611229565b610f28565b5b610795576040517f08c379a000000000000000000000000000000000000000000000000000000000815260040161078c90612ada565b60405180910390fd5b61079f8383611231565b505050565b600d60205280600052604060002060009150905080546107c3906129a4565b80601f01602080910402602001604051908101604052809291908181526020018280546107ef906129a4565b801561083c5780601f106108115761010080835404028352916020019161083c565b820191906000526020600020905b81548152906001019060200180831161081f57829003601f168201915b505050505081565b6000600880549050905090565b61086261085c611229565b826112ea565b6108a1576040517f08c379a000000000000000000000000000000000000000000000000000000000815260040161089890612b6c565b60405180910390fd5b6108ac83838361137f565b505050565b60006108bc83610bce565b82106108fd576040517f08c379a00000000000000000000000000000000000000000000000000000000081526004016108f490612bfe565b60405180910390fd5b600660008473ffffffffffffffffffffffffffffffffffffffff1673ffffffffffffffffffffffffffffffffffffffff168152602001908152602001600020600083815260200190815260200160002054905092915050565b61097183838360405180602001604052806000815250610d2e565b505050565b6000610980610844565b82106109c1576040517f08c379a00000000000000000000000000000000000000000000000000000000081526004016109b890612c90565b60405180910390fd5b600882815481106109d5576109d4612cb0565b5b90600052602060002001549050919050565b6000806002600084815260200190815260200160002060009054906101000a900473ffffffffffffffffffffffffffffffffffffffff169050600073ffffffffffffffffffffffffffffffffffffffff168173ffffffffffffffffffffffffffffffffffffffff161415610a90576040517f08c379a0000000000000000000000000000000000000000000000000000000008152600401610a8790612d2b565b60405180910390fd5b80915050919050565b60008160ff1610158015610ab45750600e805490508160ff16105b610af3576040517f08c379a0000000000000000000000000000000000000000000000000000000008152600401610aea90612d97565b60405180910390fd5b6000600b600e8360ff1681548110610b0e57610b0d612cb0565b5b90600052602060002001600c604051602001610b2c93929190612e56565b6040516020818303038152906040529050610b7c6040518060400160405280600a81526020017f746f6b656e5572693a2000000000000000000000000000000000000000000000815250826115e6565b600a6000815480929190610b8f90612eb6565b919050555080600d6000600a5481526020019081526020016000209080519060200190610bbd92919061217b565b50610bca33600a54611682565b5050565b60008073ffffffffffffffffffffffffffffffffffffffff168273ffffffffffffffffffffffffffffffffffffffff161415610c3f576040517f08c379a0000000000000000000000000000000000000000000000000000000008152600401610c3690612f71565b60405180910390fd5b600360008373ffffffffffffffffffffffffffffffffffffffff1673ffffffffffffffffffffffffffffffffffffffff168152602001908152602001600020549050919050565b606060018054610c95906129a4565b80601f0160208091040260200160405190810160405280929190818152602001828054610cc1906129a4565b8015610d0e5780601f10610ce357610100808354040283529160200191610d0e565b820191906000526020600020905b815481529060010190602001808311610cf157829003601f168201915b5050505050905090565b610d2a610d23611229565b83836116a0565b5050565b610d3f610d39611229565b836112ea565b610d7e576040517f08c379a0000000000000000000000000000000000000000000000000000000008152600401610d7590612b6c565b60405180910390fd5b610d8a8484848461180d565b50505050565b6060610d9b826111de565b600d60008381526020019081526020016000208054610db9906129a4565b80601f0160208091040260200160405190810160405280929190818152602001828054610de5906129a4565b8015610e325780601f10610e0757610100808354040283529160200191610e32565b820191906000526020600020905b815481529060010190602001808311610e1557829003601f168201915b50505050509050919050565b60606000600367ffffffffffffffff811115610e5d57610e5c612659565b5b604051908082528060200260200182016040528015610e9057816020015b6060815260200190600190039081610e7b5790505b50905060005b600e805490508160ff161015610f2057600b600e8260ff1681548110610ebf57610ebe612cb0565b5b90600052602060002001600c604051602001610edd93929190612e56565b604051602081830303815290604052828260ff1681518110610f0257610f01612cb0565b5b60200260200101819052508080610f1890612f91565b915050610e96565b508091505090565b6000600560008473ffffffffffffffffffffffffffffffffffffffff1673ffffffffffffffffffffffffffffffffffffffff16815260200190815260200160002060008373ffffffffffffffffffffffffffffffffffffffff1673ffffffffffffffffffffffffffffffffffffffff16815260200190815260200160002060009054906101000a900460ff16905092915050565b600a5481565b600e8181548110610fd257600080fd5b906000526020600020016000915090508054610fed906129a4565b80601f0160208091040260200160405190810160405280929190818152602001828054611019906129a4565b80156110665780601f1061103b57610100808354040283529160200191611066565b820191906000526020600020905b81548152906001019060200180831161104957829003601f168201915b505050505081565b600b805461107b906129a4565b80601f01602080910402602001604051908101604052809291908181526020018280546110a7906129a4565b80156110f45780601f106110c9576101008083540402835291602001916110f4565b820191906000526020600020905b8154815290600101906020018083116110d757829003601f168201915b505050505081565b60007f80ac58cd000000000000000000000000000000000000000000000000000000007bffffffffffffffffffffffffffffffffffffffffffffffffffffffff1916827bffffffffffffffffffffffffffffffffffffffffffffffffffffffff191614806111c757507f5b5e139f000000000000000000000000000000000000000000000000000000007bffffffffffffffffffffffffffffffffffffffffffffffffffffffff1916827bffffffffffffffffffffffffffffffffffffffffffffffffffffffff1916145b806111d757506111d682611869565b5b9050919050565b6111e7816118d3565b611226576040517f08c379a000000000000000000000000000000000000000000000000000000000815260040161121d90612d2b565b60405180910390fd5b50565b600033905090565b816004600083815260200190815260200160002060006101000a81548173ffffffffffffffffffffffffffffffffffffffff021916908373ffffffffffffffffffffffffffffffffffffffff160217905550808273ffffffffffffffffffffffffffffffffffffffff166112a4836109e7565b73ffffffffffffffffffffffffffffffffffffffff167f8c5be1e5ebec7d5bd14f71427d1e84f3dd0314c0f7b2291e5b200ac8c7c3b92560405160405180910390a45050565b6000806112f6836109e7565b90508073ffffffffffffffffffffffffffffffffffffffff168473ffffffffffffffffffffffffffffffffffffffff16148061133857506113378185610f28565b5b8061137657508373ffffffffffffffffffffffffffffffffffffffff1661135e84610646565b73ffffffffffffffffffffffffffffffffffffffff16145b91505092915050565b8273ffffffffffffffffffffffffffffffffffffffff1661139f826109e7565b73ffffffffffffffffffffffffffffffffffffffff16146113f5576040517f08c379a00000000000000000000000000000000000000000000000000000000081526004016113ec9061302d565b60405180910390fd5b600073ffffffffffffffffffffffffffffffffffffffff168273ffffffffffffffffffffffffffffffffffffffff161415611465576040517f08c379a000000000000000000000000000000000000000000000000000000000815260040161145c906130bf565b60405180910390fd5b61147083838361193f565b61147b600082611231565b6001600360008573ffffffffffffffffffffffffffffffffffffffff1673ffffffffffffffffffffffffffffffffffffffff16815260200190815260200160002060008282546114cb91906130df565b925050819055506001600360008473ffffffffffffffffffffffffffffffffffffffff1673ffffffffffffffffffffffffffffffffffffffff16815260200190815260200160002060008282546115229190613113565b92505081905550816002600083815260200190815260200160002060006101000a81548173ffffffffffffffffffffffffffffffffffffffff021916908373ffffffffffffffffffffffffffffffffffffffff160217905550808273ffffffffffffffffffffffffffffffffffffffff168473ffffffffffffffffffffffffffffffffffffffff167fddf252ad1be2c89b69c2b068fc378daa952ba7f163c4a11628f55a4df523b3ef60405160405180910390a46115e1838383611a53565b505050565b61167e82826040516024016115fc929190613169565b6040516020818303038152906040527f4b5c4277000000000000000000000000000000000000000000000000000000007bffffffffffffffffffffffffffffffffffffffffffffffffffffffff19166020820180517bffffffffffffffffffffffffffffffffffffffffffffffffffffffff8381831617835250505050611a58565b5050565b61169c828260405180602001604052806000815250611a81565b5050565b8173ffffffffffffffffffffffffffffffffffffffff168373ffffffffffffffffffffffffffffffffffffffff16141561170f576040517f08c379a0000000000000000000000000000000000000000000000000000000008152600401611706906131ec565b60405180910390fd5b80600560008573ffffffffffffffffffffffffffffffffffffffff1673ffffffffffffffffffffffffffffffffffffffff16815260200190815260200160002060008473ffffffffffffffffffffffffffffffffffffffff1673ffffffffffffffffffffffffffffffffffffffff16815260200190815260200160002060006101000a81548160ff0219169083151502179055508173ffffffffffffffffffffffffffffffffffffffff168373ffffffffffffffffffffffffffffffffffffffff167f17307eab39ab6107e8899845ad3d59bd9653f200f220920489ca2b5937696c318360405161180091906122d2565b60405180910390a3505050565b61181884848461137f565b61182484848484611adc565b611863576040517f08c379a000000000000000000000000000000000000000000000000000000000815260040161185a9061327e565b60405180910390fd5b50505050565b60007f01ffc9a7000000000000000000000000000000000000000000000000000000007bffffffffffffffffffffffffffffffffffffffffffffffffffffffff1916827bffffffffffffffffffffffffffffffffffffffffffffffffffffffff1916149050919050565b60008073ffffffffffffffffffffffffffffffffffffffff166002600084815260200190815260200160002060009054906101000a900473ffffffffffffffffffffffffffffffffffffffff1673ffffffffffffffffffffffffffffffffffffffff1614159050919050565b61194a838383611c73565b600073ffffffffffffffffffffffffffffffffffffffff168373ffffffffffffffffffffffffffffffffffffffff16141561198d5761198881611c78565b6119cc565b8173ffffffffffffffffffffffffffffffffffffffff168373ffffffffffffffffffffffffffffffffffffffff16146119cb576119ca8382611cc1565b5b5b600073ffffffffffffffffffffffffffffffffffffffff168273ffffffffffffffffffffffffffffffffffffffff161415611a0f57611a0a81611e2e565b611a4e565b8273ffffffffffffffffffffffffffffffffffffffff168273ffffffffffffffffffffffffffffffffffffffff1614611a4d57611a4c8282611eff565b5b5b505050565b505050565b60008151905060006a636f6e736f6c652e6c6f679050602083016000808483855afa5050505050565b611a8b8383611f7e565b611a986000848484611adc565b611ad7576040517f08c379a0000000000000000000000000000000000000000000000000000000008152600401611ace9061327e565b60405180910390fd5b505050565b6000611afd8473ffffffffffffffffffffffffffffffffffffffff16612158565b15611c66578373ffffffffffffffffffffffffffffffffffffffff1663150b7a02611b26611229565b8786866040518563ffffffff1660e01b8152600401611b4894939291906132f3565b602060405180830381600087803b158015611b6257600080fd5b505af1925050508015611b9357506040513d601f19601f82011682018060405250810190611b909190613354565b60015b611c16573d8060008114611bc3576040519150601f19603f3d011682016040523d82523d6000602084013e611bc8565b606091505b50600081511415611c0e576040517f08c379a0000000000000000000000000000000000000000000000000000000008152600401611c059061327e565b60405180910390fd5b805181602001fd5b63150b7a0260e01b7bffffffffffffffffffffffffffffffffffffffffffffffffffffffff1916817bffffffffffffffffffffffffffffffffffffffffffffffffffffffff191614915050611c6b565b600190505b949350505050565b505050565b6008805490506009600083815260200190815260200160002081905550600881908060018154018082558091505060019003906000526020600020016000909190919091505550565b60006001611cce84610bce565b611cd891906130df565b9050600060076000848152602001908152602001600020549050818114611dbd576000600660008673ffffffffffffffffffffffffffffffffffffffff1673ffffffffffffffffffffffffffffffffffffffff168152602001908152602001600020600084815260200190815260200160002054905080600660008773ffffffffffffffffffffffffffffffffffffffff1673ffffffffffffffffffffffffffffffffffffffff168152602001908152602001600020600084815260200190815260200160002081905550816007600083815260200190815260200160002081905550505b6007600084815260200190815260200160002060009055600660008573ffffffffffffffffffffffffffffffffffffffff1673ffffffffffffffffffffffffffffffffffffffff16815260200190815260200160002060008381526020019081526020016000206000905550505050565b60006001600880549050611e4291906130df565b9050600060096000848152602001908152602001600020549050600060088381548110611e7257611e71612cb0565b5b906000526020600020015490508060088381548110611e9457611e93612cb0565b5b906000526020600020018190555081600960008381526020019081526020016000208190555060096000858152602001908152602001600020600090556008805480611ee357611ee2613381565b5b6001900381819060005260206000200160009055905550505050565b6000611f0a83610bce565b905081600660008573ffffffffffffffffffffffffffffffffffffffff1673ffffffffffffffffffffffffffffffffffffffff168152602001908152602001600020600083815260200190815260200160002081905550806007600084815260200190815260200160002081905550505050565b600073ffffffffffffffffffffffffffffffffffffffff168273ffffffffffffffffffffffffffffffffffffffff161415611fee576040517f08c379a0000000000000000000000000000000000000000000000000000000008152600401611fe5906133fc565b60405180910390fd5b611ff7816118d3565b15612037576040517f08c379a000000000000000000000000000000000000000000000000000000000815260040161202e90613468565b60405180910390fd5b6120436000838361193f565b6001600360008473ffffffffffffffffffffffffffffffffffffffff1673ffffffffffffffffffffffffffffffffffffffff16815260200190815260200160002060008282546120939190613113565b92505081905550816002600083815260200190815260200160002060006101000a81548173ffffffffffffffffffffffffffffffffffffffff021916908373ffffffffffffffffffffffffffffffffffffffff160217905550808273ffffffffffffffffffffffffffffffffffffffff16600073ffffffffffffffffffffffffffffffffffffffff167fddf252ad1be2c89b69c2b068fc378daa952ba7f163c4a11628f55a4df523b3ef60405160405180910390a461215460008383611a53565b5050565b6000808273ffffffffffffffffffffffffffffffffffffffff163b119050919050565b828054612187906129a4565b90600052602060002090601f0160209004810192826121a957600085556121f0565b82601f106121c257805160ff19168380011785556121f0565b828001600101855582156121f0579182015b828111156121ef5782518255916020019190600101906121d4565b5b5090506121fd9190612201565b5090565b5b8082111561221a576000816000905550600101612202565b5090565b6000604051905090565b600080fd5b600080fd5b60007fffffffff0000000000000000000000000000000000000000000000000000000082169050919050565b61226781612232565b811461227257600080fd5b50565b6000813590506122848161225e565b92915050565b6000602082840312156122a05761229f612228565b5b60006122ae84828501612275565b91505092915050565b60008115159050919050565b6122cc816122b7565b82525050565b60006020820190506122e760008301846122c3565b92915050565b600081519050919050565b600082825260208201905092915050565b60005b8381101561232757808201518184015260208101905061230c565b83811115612336576000848401525b50505050565b6000601f19601f8301169050919050565b6000612358826122ed565b61236281856122f8565b9350612372818560208601612309565b61237b8161233c565b840191505092915050565b600060208201905081810360008301526123a0818461234d565b905092915050565b6000819050919050565b6123bb816123a8565b81146123c657600080fd5b50565b6000813590506123d8816123b2565b92915050565b6000602082840312156123f4576123f3612228565b5b6000612402848285016123c9565b91505092915050565b600073ffffffffffffffffffffffffffffffffffffffff82169050919050565b60006124368261240b565b9050919050565b6124468161242b565b82525050565b6000602082019050612461600083018461243d565b92915050565b6124708161242b565b811461247b57600080fd5b50565b60008135905061248d81612467565b92915050565b600080604083850312156124aa576124a9612228565b5b60006124b88582860161247e565b92505060206124c9858286016123c9565b9150509250929050565b6124dc816123a8565b82525050565b60006020820190506124f760008301846124d3565b92915050565b60008060006060848603121561251657612515612228565b5b60006125248682870161247e565b93505060206125358682870161247e565b9250506040612546868287016123c9565b9150509250925092565b600060ff82169050919050565b61256681612550565b811461257157600080fd5b50565b6000813590506125838161255d565b92915050565b60006020828403121561259f5761259e612228565b5b60006125ad84828501612574565b91505092915050565b6000602082840312156125cc576125cb612228565b5b60006125da8482850161247e565b91505092915050565b6125ec816122b7565b81146125f757600080fd5b50565b600081359050612609816125e3565b92915050565b6000806040838503121561262657612625612228565b5b60006126348582860161247e565b9250506020612645858286016125fa565b9150509250929050565b600080fd5b600080fd5b7f4e487b7100000000000000000000000000000000000000000000000000000000600052604160045260246000fd5b6126918261233c565b810181811067ffffffffffffffff821117156126b0576126af612659565b5b80604052505050565b60006126c361221e565b90506126cf8282612688565b919050565b600067ffffffffffffffff8211156126ef576126ee612659565b5b6126f88261233c565b9050602081019050919050565b82818337600083830152505050565b6000612727612722846126d4565b6126b9565b90508281526020810184848401111561274357612742612654565b5b61274e848285612705565b509392505050565b600082601f83011261276b5761276a61264f565b5b813561277b848260208601612714565b91505092915050565b6000806000806080858703121561279e5761279d612228565b5b60006127ac8782880161247e565b94505060206127bd8782880161247e565b93505060406127ce878288016123c9565b925050606085013567ffffffffffffffff8111156127ef576127ee61222d565b5b6127fb87828801612756565b91505092959194509250565b600081519050919050565b600082825260208201905092915050565b6000819050602082019050919050565b600082825260208201905092915050565b600061284f826122ed565b6128598185612833565b9350612869818560208601612309565b6128728161233c565b840191505092915050565b60006128898383612844565b905092915050565b6000602082019050919050565b60006128a982612807565b6128b38185612812565b9350836020820285016128c585612823565b8060005b8581101561290157848403895281516128e2858261287d565b94506128ed83612891565b925060208a019950506001810190506128c9565b50829750879550505050505092915050565b6000602082019050818103600083015261292d818461289e565b905092915050565b6000806040838503121561294c5761294b612228565b5b600061295a8582860161247e565b925050602061296b8582860161247e565b9150509250929050565b7f4e487b7100000000000000000000000000000000000000000000000000000000600052602260045260246000fd5b600060028204905060018216806129bc57607f821691505b602082108114156129d0576129cf612975565b5b50919050565b7f4552433732313a20617070726f76616c20746f2063757272656e74206f776e6560008201527f7200000000000000000000000000000000000000000000000000000000000000602082015250565b6000612a326021836122f8565b9150612a3d826129d6565b604082019050919050565b60006020820190508181036000830152612a6181612a25565b9050919050565b7f4552433732313a20617070726f76652063616c6c6572206973206e6f7420746f60008201527f6b656e206f776e6572206e6f7220617070726f76656420666f7220616c6c0000602082015250565b6000612ac4603e836122f8565b9150612acf82612a68565b604082019050919050565b60006020820190508181036000830152612af381612ab7565b9050919050565b7f4552433732313a2063616c6c6572206973206e6f7420746f6b656e206f776e6560008201527f72206e6f7220617070726f766564000000000000000000000000000000000000602082015250565b6000612b56602e836122f8565b9150612b6182612afa565b604082019050919050565b60006020820190508181036000830152612b8581612b49565b9050919050565b7f455243373231456e756d657261626c653a206f776e657220696e646578206f7560008201527f74206f6620626f756e6473000000000000000000000000000000000000000000602082015250565b6000612be8602b836122f8565b9150612bf382612b8c565b604082019050919050565b60006020820190508181036000830152612c1781612bdb565b9050919050565b7f455243373231456e756d657261626c653a20676c6f62616c20696e646578206f60008201527f7574206f6620626f756e64730000000000000000000000000000000000000000602082015250565b6000612c7a602c836122f8565b9150612c8582612c1e565b604082019050919050565b60006020820190508181036000830152612ca981612c6d565b9050919050565b7f4e487b7100000000000000000000000000000000000000000000000000000000600052603260045260246000fd5b7f4552433732313a20696e76616c696420746f6b656e2049440000000000000000600082015250565b6000612d156018836122f8565b9150612d2082612cdf565b602082019050919050565b60006020820190508181036000830152612d4481612d08565b9050919050565b7f696e76616c696420747970650000000000000000000000000000000000000000600082015250565b6000612d81600c836122f8565b9150612d8c82612d4b565b602082019050919050565b60006020820190508181036000830152612db081612d74565b9050919050565b600081905092915050565b60008190508160005260206000209050919050565b60008154612de4816129a4565b612dee8186612db7565b94506001821660008114612e095760018114612e1a57612e4d565b60ff19831686528186019350612e4d565b612e2385612dc2565b60005b83811015612e4557815481890152600182019150602081019050612e26565b838801955050505b50505092915050565b6000612e628286612dd7565b9150612e6e8285612dd7565b9150612e7a8284612dd7565b9150819050949350505050565b7f4e487b7100000000000000000000000000000000000000000000000000000000600052601160045260246000fd5b6000612ec1826123a8565b91507fffffffffffffffffffffffffffffffffffffffffffffffffffffffffffffffff821415612ef457612ef3612e87565b5b600182019050919050565b7f4552433732313a2061646472657373207a65726f206973206e6f74206120766160008201527f6c6964206f776e65720000000000000000000000000000000000000000000000602082015250565b6000612f5b6029836122f8565b9150612f6682612eff565b604082019050919050565b60006020820190508181036000830152612f8a81612f4e565b9050919050565b6000612f9c82612550565b915060ff821415612fb057612faf612e87565b5b600182019050919050565b7f4552433732313a207472616e736665722066726f6d20696e636f72726563742060008201527f6f776e6572000000000000000000000000000000000000000000000000000000602082015250565b60006130176025836122f8565b915061302282612fbb565b604082019050919050565b600060208201905081810360008301526130468161300a565b9050919050565b7f4552433732313a207472616e7366657220746f20746865207a65726f2061646460008201527f7265737300000000000000000000000000000000000000000000000000000000602082015250565b60006130a96024836122f8565b91506130b48261304d565b604082019050919050565b600060208201905081810360008301526130d88161309c565b9050919050565b60006130ea826123a8565b91506130f5836123a8565b92508282101561310857613107612e87565b5b828203905092915050565b600061311e826123a8565b9150613129836123a8565b9250827fffffffffffffffffffffffffffffffffffffffffffffffffffffffffffffffff0382111561315e5761315d612e87565b5b828201905092915050565b60006040820190508181036000830152613183818561234d565b90508181036020830152613197818461234d565b90509392505050565b7f4552433732313a20617070726f766520746f2063616c6c657200000000000000600082015250565b60006131d66019836122f8565b91506131e1826131a0565b602082019050919050565b60006020820190508181036000830152613205816131c9565b9050919050565b7f4552433732313a207472616e7366657220746f206e6f6e20455243373231526560008201527f63656976657220696d706c656d656e7465720000000000000000000000000000602082015250565b60006132686032836122f8565b91506132738261320c565b604082019050919050565b600060208201905081810360008301526132978161325b565b9050919050565b600081519050919050565b600082825260208201905092915050565b60006132c58261329e565b6132cf81856132a9565b93506132df818560208601612309565b6132e88161233c565b840191505092915050565b6000608082019050613308600083018761243d565b613315602083018661243d565b61332260408301856124d3565b818103606083015261333481846132ba565b905095945050505050565b60008151905061334e8161225e565b92915050565b60006020828403121561336a57613369612228565b5b60006133788482850161333f565b91505092915050565b7f4e487b7100000000000000000000000000000000000000000000000000000000600052603160045260246000fd5b7f4552433732313a206d696e7420746f20746865207a65726f2061646472657373600082015250565b60006133e66020836122f8565b91506133f1826133b0565b602082019050919050565b60006020820190508181036000830152613415816133d9565b9050919050565b7f4552433732313a20746f6b656e20616c7265616479206d696e74656400000000600082015250565b6000613452601c836122f8565b915061345d8261341c565b602082019050919050565b6000602082019050818103600083015261348181613445565b905091905056fea26469706673582212208772a6e1d7f9a8115ea78f3127552a3f0034a01e1fa395af24c98d76c4e0dc2f64736f6c6343000809003368747470733a2f2f676174657761792e70696e6174612e636c6f75642f697066732f516d6248634846585533723248706b47524d435a566e444d674c5171776963537655455a7950687442383939666b2f",
  "devdoc": {
    "kind": "dev",
    "methods": {
      "approve(address,uint256)": {
        "details": "See {IERC721-approve}."
      },
      "balanceOf(address)": {
        "details": "See {IERC721-balanceOf}."
      },
      "getApproved(uint256)": {
        "details": "See {IERC721-getApproved}."
      },
      "isApprovedForAll(address,address)": {
        "details": "See {IERC721-isApprovedForAll}."
      },
      "name()": {
        "details": "See {IERC721Metadata-name}."
      },
      "ownerOf(uint256)": {
        "details": "See {IERC721-ownerOf}."
      },
      "safeTransferFrom(address,address,uint256)": {
        "details": "See {IERC721-safeTransferFrom}."
      },
      "safeTransferFrom(address,address,uint256,bytes)": {
        "details": "See {IERC721-safeTransferFrom}."
      },
      "setApprovalForAll(address,bool)": {
        "details": "See {IERC721-setApprovalForAll}."
      },
      "supportsInterface(bytes4)": {
        "details": "See {IERC165-supportsInterface}."
      },
      "symbol()": {
        "details": "See {IERC721Metadata-symbol}."
      },
      "tokenByIndex(uint256)": {
        "details": "See {IERC721Enumerable-tokenByIndex}."
      },
      "tokenOfOwnerByIndex(address,uint256)": {
        "details": "See {IERC721Enumerable-tokenOfOwnerByIndex}."
      },
      "tokenURI(uint256)": {
        "details": "See {IERC721Metadata-tokenURI}."
      },
      "totalSupply()": {
        "details": "See {IERC721Enumerable-totalSupply}."
      },
      "transferFrom(address,address,uint256)": {
        "details": "See {IERC721-transferFrom}."
      }
    },
    "version": 1
  },
  "userdoc": {
    "kind": "user",
    "methods": {},
    "version": 1
  },
  "storageLayout": {
    "storage": [
      {
        "astId": 25,
        "contract": "contracts/NFTContract.sol:NFTContract",
        "label": "_name",
        "offset": 0,
        "slot": "0",
        "type": "t_string_storage"
      },
      {
        "astId": 27,
        "contract": "contracts/NFTContract.sol:NFTContract",
        "label": "_symbol",
        "offset": 0,
        "slot": "1",
        "type": "t_string_storage"
      },
      {
        "astId": 31,
        "contract": "contracts/NFTContract.sol:NFTContract",
        "label": "_owners",
        "offset": 0,
        "slot": "2",
        "type": "t_mapping(t_uint256,t_address)"
      },
      {
        "astId": 35,
        "contract": "contracts/NFTContract.sol:NFTContract",
        "label": "_balances",
        "offset": 0,
        "slot": "3",
        "type": "t_mapping(t_address,t_uint256)"
      },
      {
        "astId": 39,
        "contract": "contracts/NFTContract.sol:NFTContract",
        "label": "_tokenApprovals",
        "offset": 0,
        "slot": "4",
        "type": "t_mapping(t_uint256,t_address)"
      },
      {
        "astId": 45,
        "contract": "contracts/NFTContract.sol:NFTContract",
        "label": "_operatorApprovals",
        "offset": 0,
        "slot": "5",
        "type": "t_mapping(t_address,t_mapping(t_address,t_bool))"
      },
      {
        "astId": 1015,
        "contract": "contracts/NFTContract.sol:NFTContract",
        "label": "_ownedTokens",
        "offset": 0,
        "slot": "6",
        "type": "t_mapping(t_address,t_mapping(t_uint256,t_uint256))"
      },
      {
        "astId": 1019,
        "contract": "contracts/NFTContract.sol:NFTContract",
        "label": "_ownedTokensIndex",
        "offset": 0,
        "slot": "7",
        "type": "t_mapping(t_uint256,t_uint256)"
      },
      {
        "astId": 1022,
        "contract": "contracts/NFTContract.sol:NFTContract",
        "label": "_allTokens",
        "offset": 0,
        "slot": "8",
        "type": "t_array(t_uint256)dyn_storage"
      },
      {
        "astId": 1026,
        "contract": "contracts/NFTContract.sol:NFTContract",
        "label": "_allTokensIndex",
        "offset": 0,
        "slot": "9",
        "type": "t_mapping(t_uint256,t_uint256)"
      },
      {
        "astId": 1983,
        "contract": "contracts/NFTContract.sol:NFTContract",
        "label": "tokenCounters",
        "offset": 0,
        "slot": "10",
        "type": "t_uint256"
      },
      {
        "astId": 1986,
        "contract": "contracts/NFTContract.sol:NFTContract",
        "label": "uriBase",
        "offset": 0,
        "slot": "11",
        "type": "t_string_storage"
      },
      {
        "astId": 1989,
        "contract": "contracts/NFTContract.sol:NFTContract",
        "label": "uriExtention",
        "offset": 0,
        "slot": "12",
        "type": "t_string_storage"
      },
      {
        "astId": 1993,
        "contract": "contracts/NFTContract.sol:NFTContract",
        "label": "uri",
        "offset": 0,
        "slot": "13",
        "type": "t_mapping(t_uint256,t_string_storage)"
      },
      {
        "astId": 2000,
        "contract": "contracts/NFTContract.sol:NFTContract",
        "label": "urisTypes",
        "offset": 0,
        "slot": "14",
        "type": "t_array(t_string_storage)dyn_storage"
      }
    ],
    "types": {
      "t_address": {
        "encoding": "inplace",
        "label": "address",
        "numberOfBytes": "20"
      },
      "t_array(t_string_storage)dyn_storage": {
        "base": "t_string_storage",
        "encoding": "dynamic_array",
        "label": "string[]",
        "numberOfBytes": "32"
      },
      "t_array(t_uint256)dyn_storage": {
        "base": "t_uint256",
        "encoding": "dynamic_array",
        "label": "uint256[]",
        "numberOfBytes": "32"
      },
      "t_bool": {
        "encoding": "inplace",
        "label": "bool",
        "numberOfBytes": "1"
      },
      "t_mapping(t_address,t_bool)": {
        "encoding": "mapping",
        "key": "t_address",
        "label": "mapping(address => bool)",
        "numberOfBytes": "32",
        "value": "t_bool"
      },
      "t_mapping(t_address,t_mapping(t_address,t_bool))": {
        "encoding": "mapping",
        "key": "t_address",
        "label": "mapping(address => mapping(address => bool))",
        "numberOfBytes": "32",
        "value": "t_mapping(t_address,t_bool)"
      },
      "t_mapping(t_address,t_mapping(t_uint256,t_uint256))": {
        "encoding": "mapping",
        "key": "t_address",
        "label": "mapping(address => mapping(uint256 => uint256))",
        "numberOfBytes": "32",
        "value": "t_mapping(t_uint256,t_uint256)"
      },
      "t_mapping(t_address,t_uint256)": {
        "encoding": "mapping",
        "key": "t_address",
        "label": "mapping(address => uint256)",
        "numberOfBytes": "32",
        "value": "t_uint256"
      },
      "t_mapping(t_uint256,t_address)": {
        "encoding": "mapping",
        "key": "t_uint256",
        "label": "mapping(uint256 => address)",
        "numberOfBytes": "32",
        "value": "t_address"
      },
      "t_mapping(t_uint256,t_string_storage)": {
        "encoding": "mapping",
        "key": "t_uint256",
        "label": "mapping(uint256 => string)",
        "numberOfBytes": "32",
        "value": "t_string_storage"
      },
      "t_mapping(t_uint256,t_uint256)": {
        "encoding": "mapping",
        "key": "t_uint256",
        "label": "mapping(uint256 => uint256)",
        "numberOfBytes": "32",
        "value": "t_uint256"
      },
      "t_string_storage": {
        "encoding": "bytes",
        "label": "string",
        "numberOfBytes": "32"
      },
      "t_uint256": {
        "encoding": "inplace",
        "label": "uint256",
        "numberOfBytes": "32"
      }
    }
  }
}