{
  "address": "0xe7f1725E7734CE288F8367e1Bb143E90bb3F0512",
  "abi": [
    {
      "inputs": [
        {
          "internalType": "address",
          "name": "nftAddress",
          "type": "address"
        },
        {
          "internalType": "uint256",
          "name": "tokenId",
          "type": "uint256"
        }
      ],
      "name": "AlreadyListed",
      "type": "error"
    },
    {
      "inputs": [],
      "name": "NoProceeds",
      "type": "error"
    },
    {
      "inputs": [],
      "name": "NotApprovedForMarketplace",
      "type": "error"
    },
    {
      "inputs": [
        {
          "internalType": "address",
          "name": "nftAddress",
          "type": "address"
        },
        {
          "internalType": "uint256",
          "name": "tokenId",
          "type": "uint256"
        }
      ],
      "name": "NotListed",
      "type": "error"
    },
    {
      "inputs": [],
      "name": "NotOwner",
      "type": "error"
    },
    {
      "inputs": [],
      "name": "PriceMustBeAboveZero",
      "type": "error"
    },
    {
      "inputs": [
        {
          "internalType": "address",
          "name": "nftAddress",
          "type": "address"
        },
        {
          "internalType": "uint256",
          "name": "tokenId",
          "type": "uint256"
        },
        {
          "internalType": "uint256",
          "name": "price",
          "type": "uint256"
        }
      ],
      "name": "PriceNotMet",
      "type": "error"
    },
    {
      "anonymous": false,
      "inputs": [
        {
          "indexed": true,
          "internalType": "address",
          "name": "buyer",
          "type": "address"
        },
        {
          "indexed": true,
          "internalType": "address",
          "name": "nftAddress",
          "type": "address"
        },
        {
          "indexed": true,
          "internalType": "uint256",
          "name": "tokenId",
          "type": "uint256"
        },
        {
          "indexed": false,
          "internalType": "uint256",
          "name": "price",
          "type": "uint256"
        }
      ],
      "name": "ItemBought",
      "type": "event"
    },
    {
      "anonymous": false,
      "inputs": [
        {
          "indexed": true,
          "internalType": "address",
          "name": "seller",
          "type": "address"
        },
        {
          "indexed": true,
          "internalType": "address",
          "name": "nftAddress",
          "type": "address"
        },
        {
          "indexed": true,
          "internalType": "uint256",
          "name": "tokenId",
          "type": "uint256"
        }
      ],
      "name": "ItemCanceled",
      "type": "event"
    },
    {
      "anonymous": false,
      "inputs": [
        {
          "indexed": true,
          "internalType": "address",
          "name": "seller",
          "type": "address"
        },
        {
          "indexed": true,
          "internalType": "address",
          "name": "nftAddress",
          "type": "address"
        },
        {
          "indexed": true,
          "internalType": "uint256",
          "name": "tokenId",
          "type": "uint256"
        },
        {
          "indexed": false,
          "internalType": "uint256",
          "name": "price",
          "type": "uint256"
        }
      ],
      "name": "ItemListed",
      "type": "event"
    },
    {
      "inputs": [
        {
          "internalType": "address",
          "name": "nftAddress",
          "type": "address"
        },
        {
          "internalType": "uint256",
          "name": "tokenId",
          "type": "uint256"
        }
      ],
      "name": "buyItem",
      "outputs": [],
      "stateMutability": "payable",
      "type": "function"
    },
    {
      "inputs": [
        {
          "internalType": "address",
          "name": "nftAddress",
          "type": "address"
        },
        {
          "internalType": "uint256",
          "name": "tokenId",
          "type": "uint256"
        }
      ],
      "name": "cancelListing",
      "outputs": [],
      "stateMutability": "nonpayable",
      "type": "function"
    },
    {
      "inputs": [],
      "name": "getAllOrderIds",
      "outputs": [
        {
          "internalType": "uint256[]",
          "name": "",
          "type": "uint256[]"
        }
      ],
      "stateMutability": "view",
      "type": "function"
    },
    {
      "inputs": [
        {
          "internalType": "address",
          "name": "nftAddress",
          "type": "address"
        },
        {
          "internalType": "uint256",
          "name": "tokenId",
          "type": "uint256"
        }
      ],
      "name": "getListing",
      "outputs": [
        {
          "components": [
            {
              "internalType": "uint256",
              "name": "orderId",
              "type": "uint256"
            },
            {
              "internalType": "uint256",
              "name": "price",
              "type": "uint256"
            },
            {
              "internalType": "address",
              "name": "seller",
              "type": "address"
            },
            {
              "internalType": "address",
              "name": "token",
              "type": "address"
            },
            {
              "internalType": "uint256",
              "name": "id",
              "type": "uint256"
            }
          ],
          "internalType": "struct NftMarketplace.Listing",
          "name": "",
          "type": "tuple"
        }
      ],
      "stateMutability": "view",
      "type": "function"
    },
    {
      "inputs": [
        {
          "internalType": "uint256",
          "name": "orderId",
          "type": "uint256"
        }
      ],
      "name": "getListingByOrderId",
      "outputs": [
        {
          "components": [
            {
              "internalType": "uint256",
              "name": "orderId",
              "type": "uint256"
            },
            {
              "internalType": "uint256",
              "name": "price",
              "type": "uint256"
            },
            {
              "internalType": "address",
              "name": "seller",
              "type": "address"
            },
            {
              "internalType": "address",
              "name": "token",
              "type": "address"
            },
            {
              "internalType": "uint256",
              "name": "id",
              "type": "uint256"
            }
          ],
          "internalType": "struct NftMarketplace.Listing",
          "name": "",
          "type": "tuple"
        }
      ],
      "stateMutability": "view",
      "type": "function"
    },
    {
      "inputs": [
        {
          "internalType": "address",
          "name": "seller",
          "type": "address"
        }
      ],
      "name": "getProceeds",
      "outputs": [
        {
          "internalType": "uint256",
          "name": "",
          "type": "uint256"
        }
      ],
      "stateMutability": "view",
      "type": "function"
    },
    {
      "inputs": [
        {
          "internalType": "address",
          "name": "nftAddress",
          "type": "address"
        },
        {
          "internalType": "uint256",
          "name": "tokenId",
          "type": "uint256"
        },
        {
          "internalType": "uint256",
          "name": "price",
          "type": "uint256"
        }
      ],
      "name": "listItem",
      "outputs": [],
      "stateMutability": "nonpayable",
      "type": "function"
    },
    {
      "inputs": [],
      "name": "orderCounter",
      "outputs": [
        {
          "internalType": "uint256",
          "name": "",
          "type": "uint256"
        }
      ],
      "stateMutability": "view",
      "type": "function"
    },
    {
      "inputs": [
        {
          "internalType": "address",
          "name": "nftAddress",
          "type": "address"
        },
        {
          "internalType": "uint256",
          "name": "tokenId",
          "type": "uint256"
        },
        {
          "internalType": "uint256",
          "name": "newPrice",
          "type": "uint256"
        }
      ],
      "name": "updateListing",
      "outputs": [],
      "stateMutability": "nonpayable",
      "type": "function"
    },
    {
      "inputs": [],
      "name": "withdrawProceeds",
      "outputs": [],
      "stateMutability": "nonpayable",
      "type": "function"
    }
  ],
  "transactionHash": "0xc19c2cc53ca2e763780988c0577769986ebc5a36b504470051a1110444b8ed2e",
  "args": [],
  "numDeployments": 1,
  "solcInputHash": "557ab2569a305609debfaa716f541b4c",
  "bytecode": "0x608060405234801561001057600080fd5b50600160005561158c806100256000396000f3fe6080604052600436106100915760003560e01c80639f37092a116100595780639f37092a146101a6578063ad120737146101b9578063b2ddee06146101d9578063b789bf52146101f9578063f772adf11461020f57600080fd5b806330cfeda9146100965780634b2b612a146100df57806388700d1c1461010157806389bfd38f1461016f5780639038e69314610191575b600080fd5b3480156100a257600080fd5b506100cc6100b13660046113d2565b6001600160a01b031660009081526006602052604090205490565b6040519081526020015b60405180910390f35b3480156100eb57600080fd5b506100f461022f565b6040516100d691906113ef565b34801561010d57600080fd5b5061012161011c366004611433565b610240565b6040516100d6919081518152602080830151908201526040808301516001600160a01b0390811691830191909152606080840151909116908201526080918201519181019190915260a00190565b34801561017b57600080fd5b5061018f61018a36600461145f565b6102af565b005b34801561019d57600080fd5b5061018f6106fb565b61018f6101b4366004611433565b6107c6565b3480156101c557600080fd5b506101216101d4366004611494565b610adf565b3480156101e557600080fd5b5061018f6101f4366004611433565b610b44565b34801561020557600080fd5b506100cc60035481565b34801561021b57600080fd5b5061018f61022a36600461145f565b610e8f565b606061023b60016111af565b905090565b610248611379565b506001600160a01b038083166000908152600460208181526040808420868552825292839020835160a08101855281548152600182015492810192909252600281015485169382019390935260038301549093166060840152015460808201525b92915050565b6001600160a01b038084166000908152600460208181526040808420878552825292839020835160a08101855281548152600182015492810183905260028201548616948101949094526003810154909416606084015292015460808201528491849133911561034957604051634a5568d560e01b81526001600160a01b0385166004820152602481018490526044015b60405180910390fd5b6040516331a9108f60e11b81526004810187905287908790339083906000906001600160a01b03831690636352211e9060240160206040518083038186803b15801561039457600080fd5b505afa1580156103a8573d6000803e3d6000fd5b505050506040513d601f19601f820116820180604052508101906103cc91906114ad565b9050806001600160a01b0316836001600160a01b031614610400576040516330cd747160e01b815260040160405180910390fd5b60008a116104215760405163e1abbfc560e01b815260040160405180910390fd5b60405163020604bf60e21b8152600481018c90528c9030906001600160a01b0383169063081812fc9060240160206040518083038186803b15801561046557600080fd5b505afa158015610479573d6000803e3d6000fd5b505050506040513d601f19601f8201168201806040525081019061049d91906114ad565b6001600160a01b0316146104c457604051634be3a2c560e01b815260040160405180910390fd5b600380549060006104d4836114e0565b91905055506104e660016003546111c3565b506040518060a0016040528060035481526020018c8152602001336001600160a01b031681526020018e6001600160a01b031681526020018d815250600460008f6001600160a01b03166001600160a01b0316815260200190815260200160002060008e8152602001908152602001600020600082015181600001556020820151816001015560408201518160020160006101000a8154816001600160a01b0302191690836001600160a01b0316021790555060608201518160030160006101000a8154816001600160a01b0302191690836001600160a01b03160217905550608082015181600401559050506040518060a0016040528060035481526020018c8152602001336001600160a01b031681526020018e6001600160a01b031681526020018d815250600560006003548152602001908152602001600020600082015181600001556020820151816001015560408201518160020160006101000a8154816001600160a01b0302191690836001600160a01b0316021790555060608201518160030160006101000a8154816001600160a01b0302191690836001600160a01b03160217905550608082015181600401559050508b8d6001600160a01b0316336001600160a01b03167fd547e933094f12a9159076970143ebe73234e64480317844b0dcb36117116de48e6040516106e491815260200190565b60405180910390a450505050505050505050505050565b33600090815260066020526040902054806107295760405163c4d8fa8760e01b815260040160405180910390fd5b336000818152600660205260408082208290555190919083908381818185875af1925050503d806000811461077a576040519150601f19603f3d011682016040523d82523d6000602084013e61077f565b606091505b50509050806107c25760405162461bcd60e51b815260206004820152600f60248201526e151c985b9cd9995c8819985a5b1959608a1b6044820152606401610340565b5050565b6001600160a01b038083166000908152600460208181526040808420868552825292839020835160a0810185528154815260018201549281018390526002820154861694810194909452600381015490941660608401529201546080820152839183919061085957604051631a0c522360e21b81526001600160a01b038416600482015260248101839052604401610340565b600260005414156108ac5760405162461bcd60e51b815260206004820152601f60248201527f5265656e7472616e637947756172643a207265656e7472616e742063616c6c006044820152606401610340565b600260008181556001600160a01b0380881682526004602081815260408085208a8652825293849020845160a08101865281548152600182015492810183905295810154841694860194909452600384015490921660608501529190910154608083015234101561094f576020810151604051637c93456560e01b81526001600160a01b0388166004820152602481018790526044810191909152606401610340565b6040808201516001600160a01b031660009081526006602052908120805434929061097b9084906114fb565b90915550506001600160a01b038616600090815260046020818152604080842089855282528084208481556001808201869055600280830180546001600160a01b031990811690915560038085018054831690559387018890558851885260059095529286208681558082018790559283018054851690559082018054909316909255909101919091558151610a1191906111cf565b506040818101519051632142170760e11b81526001600160a01b03918216600482015233602482015260448101879052908716906342842e0e90606401600060405180830381600087803b158015610a6857600080fd5b505af1158015610a7c573d6000803e3d6000fd5b5050505084866001600160a01b0316336001600160a01b03167f263223b1dd81e51054a4e6f791d45a4a1ddb4aadcd93a2dfd892615c3fdac1878460200151604051610aca91815260200190565b60405180910390a45050600160005550505050565b610ae7611379565b50600090815260056020908152604091829020825160a0810184528154815260018201549281019290925260028101546001600160a01b039081169383019390935260038101549092166060820152600490910154608082015290565b6040516331a9108f60e11b81526004810182905282908290339083906000906001600160a01b03831690636352211e9060240160206040518083038186803b158015610b8f57600080fd5b505afa158015610ba3573d6000803e3d6000fd5b505050506040513d601f19601f82011682018060405250810190610bc791906114ad565b9050806001600160a01b0316836001600160a01b031614610bfb576040516330cd747160e01b815260040160405180910390fd5b6001600160a01b0380881660009081526004602081815260408084208b8552825292839020835160a08101855281548152600182015492810183905260028201548616948101949094526003810154909416606084015292015460808201528891889190610c8e57604051631a0c522360e21b81526001600160a01b038416600482015260248101839052604401610340565b6000600460008c6001600160a01b03166001600160a01b0316815260200190815260200160002060008b81526020019081526020016000206040518060a001604052908160008201548152602001600182015481526020016002820160009054906101000a90046001600160a01b03166001600160a01b03166001600160a01b031681526020016003820160009054906101000a90046001600160a01b03166001600160a01b03166001600160a01b031681526020016004820154815250509050600460008c6001600160a01b03166001600160a01b0316815260200190815260200160002060008b815260200190815260200160002060008082016000905560018201600090556002820160006101000a8154906001600160a01b0302191690556003820160006101000a8154906001600160a01b03021916905560048201600090555050600560008260000151815260200190815260200160002060008082016000905560018201600090556002820160006101000a8154906001600160a01b0302191690556003820160006101000a8154906001600160a01b03021916905560048201600090555050610e49600182600001516111cf565b506040518a906001600160a01b038d169033907f9ba1a3cb55ce8d63d072a886f94d2a744f50cddf82128e897d0661f5ec62315890600090a45050505050505050505050565b6001600160a01b038084166000908152600460208181526040808420878552825292839020835160a08101855281548152600182015492810183905260028201548616948101949094526003810154909416606084015292015460808201528491849190610f2257604051631a0c522360e21b81526001600160a01b038416600482015260248101839052604401610340565b60026000541415610f755760405162461bcd60e51b815260206004820152601f60248201527f5265656e7472616e637947756172643a207265656e7472616e742063616c6c006044820152606401610340565b600260009081556040516331a9108f60e11b81526004810187905287918791339184916001600160a01b03831690636352211e9060240160206040518083038186803b158015610fc457600080fd5b505afa158015610fd8573d6000803e3d6000fd5b505050506040513d601f19601f82011682018060405250810190610ffc91906114ad565b9050806001600160a01b0316836001600160a01b031614611030576040516330cd747160e01b815260040160405180910390fd5b6000600460008d6001600160a01b03166001600160a01b0316815260200190815260200160002060008c81526020019081526020016000206040518060a001604052908160008201548152602001600182015481526020016002820160009054906101000a90046001600160a01b03166001600160a01b03166001600160a01b031681526020016003820160009054906101000a90046001600160a01b03166001600160a01b03166001600160a01b03168152602001600482015481525050905089600460008e6001600160a01b03166001600160a01b0316815260200190815260200160002060008d815260200190815260200160002060010181905550896005600083600001518152602001908152602001600020600101819055508a8c6001600160a01b0316336001600160a01b03167fd547e933094f12a9159076970143ebe73234e64480317844b0dcb36117116de48d60405161119491815260200190565b60405180910390a45050600160005550505050505050505050565b606060006111bc836111db565b9392505050565b60006111bc8383611237565b60006111bc8383611286565b60608160000180548060200260200160405190810160405280929190818152602001828054801561122b57602002820191906000526020600020905b815481526020019060010190808311611217575b50505050509050919050565b600081815260018301602052604081205461127e575081546001818101845560008481526020808220909301849055845484825282860190935260409020919091556102a9565b5060006102a9565b6000818152600183016020526040812054801561136f5760006112aa600183611513565b85549091506000906112be90600190611513565b90508181146113235760008660000182815481106112de576112de61152a565b90600052602060002001549050808760000184815481106113015761130161152a565b6000918252602080832090910192909255918252600188019052604090208390555b855486908061133457611334611540565b6001900381819060005260206000200160009055905585600101600086815260200190815260200160002060009055600193505050506102a9565b60009150506102a9565b6040518060a00160405280600081526020016000815260200160006001600160a01b0316815260200160006001600160a01b03168152602001600081525090565b6001600160a01b03811681146113cf57600080fd5b50565b6000602082840312156113e457600080fd5b81356111bc816113ba565b6020808252825182820181905260009190848201906040850190845b818110156114275783518352928401929184019160010161140b565b50909695505050505050565b6000806040838503121561144657600080fd5b8235611451816113ba565b946020939093013593505050565b60008060006060848603121561147457600080fd5b833561147f816113ba565b95602085013595506040909401359392505050565b6000602082840312156114a657600080fd5b5035919050565b6000602082840312156114bf57600080fd5b81516111bc816113ba565b634e487b7160e01b600052601160045260246000fd5b60006000198214156114f4576114f46114ca565b5060010190565b6000821982111561150e5761150e6114ca565b500190565b600082821015611525576115256114ca565b500390565b634e487b7160e01b600052603260045260246000fd5b634e487b7160e01b600052603160045260246000fdfea2646970667358221220457f061089510cf8956246c25c7af2b9d152a43adca5562da5babfa1b161fe3264736f6c63430008090033",
  "devdoc": {
    "kind": "dev",
    "methods": {},
    "version": 1
  },
  "userdoc": {
    "events": {
      "ItemListed(address,address,uint256,uint256)": {
        "notice": "All events"
      }
    },
    "kind": "user",
    "methods": {},
    "version": 1
  },
  "storageLayout": {
    "storage": [
      {
        "astId": 10,
        "contract": "contracts/NftMarketplace.sol:NftMarketplace",
        "label": "_status",
        "offset": 0,
        "slot": "0",
        "type": "t_uint256"
      },
      {
        "astId": 2832,
        "contract": "contracts/NftMarketplace.sol:NftMarketplace",
        "label": "orders",
        "offset": 0,
        "slot": "1",
        "type": "t_struct(UintSet)2484_storage"
      },
      {
        "astId": 2834,
        "contract": "contracts/NftMarketplace.sol:NftMarketplace",
        "label": "orderCounter",
        "offset": 0,
        "slot": "3",
        "type": "t_uint256"
      },
      {
        "astId": 2852,
        "contract": "contracts/NftMarketplace.sol:NftMarketplace",
        "label": "s_listings",
        "offset": 0,
        "slot": "4",
        "type": "t_mapping(t_address,t_mapping(t_uint256,t_struct(Listing)2845_storage))"
      },
      {
        "astId": 2857,
        "contract": "contracts/NftMarketplace.sol:NftMarketplace",
        "label": "s_listingsByOrder",
        "offset": 0,
        "slot": "5",
        "type": "t_mapping(t_uint256,t_struct(Listing)2845_storage)"
      },
      {
        "astId": 2861,
        "contract": "contracts/NftMarketplace.sol:NftMarketplace",
        "label": "s_proceeds",
        "offset": 0,
        "slot": "6",
        "type": "t_mapping(t_address,t_uint256)"
      }
    ],
    "types": {
      "t_address": {
        "encoding": "inplace",
        "label": "address",
        "numberOfBytes": "20"
      },
      "t_array(t_bytes32)dyn_storage": {
        "base": "t_bytes32",
        "encoding": "dynamic_array",
        "label": "bytes32[]",
        "numberOfBytes": "32"
      },
      "t_bytes32": {
        "encoding": "inplace",
        "label": "bytes32",
        "numberOfBytes": "32"
      },
      "t_mapping(t_address,t_mapping(t_uint256,t_struct(Listing)2845_storage))": {
        "encoding": "mapping",
        "key": "t_address",
        "label": "mapping(address => mapping(uint256 => struct NftMarketplace.Listing))",
        "numberOfBytes": "32",
        "value": "t_mapping(t_uint256,t_struct(Listing)2845_storage)"
      },
      "t_mapping(t_address,t_uint256)": {
        "encoding": "mapping",
        "key": "t_address",
        "label": "mapping(address => uint256)",
        "numberOfBytes": "32",
        "value": "t_uint256"
      },
      "t_mapping(t_bytes32,t_uint256)": {
        "encoding": "mapping",
        "key": "t_bytes32",
        "label": "mapping(bytes32 => uint256)",
        "numberOfBytes": "32",
        "value": "t_uint256"
      },
      "t_mapping(t_uint256,t_struct(Listing)2845_storage)": {
        "encoding": "mapping",
        "key": "t_uint256",
        "label": "mapping(uint256 => struct NftMarketplace.Listing)",
        "numberOfBytes": "32",
        "value": "t_struct(Listing)2845_storage"
      },
      "t_struct(Listing)2845_storage": {
        "encoding": "inplace",
        "label": "struct NftMarketplace.Listing",
        "members": [
          {
            "astId": 2836,
            "contract": "contracts/NftMarketplace.sol:NftMarketplace",
            "label": "orderId",
            "offset": 0,
            "slot": "0",
            "type": "t_uint256"
          },
          {
            "astId": 2838,
            "contract": "contracts/NftMarketplace.sol:NftMarketplace",
            "label": "price",
            "offset": 0,
            "slot": "1",
            "type": "t_uint256"
          },
          {
            "astId": 2840,
            "contract": "contracts/NftMarketplace.sol:NftMarketplace",
            "label": "seller",
            "offset": 0,
            "slot": "2",
            "type": "t_address"
          },
          {
            "astId": 2842,
            "contract": "contracts/NftMarketplace.sol:NftMarketplace",
            "label": "token",
            "offset": 0,
            "slot": "3",
            "type": "t_address"
          },
          {
            "astId": 2844,
            "contract": "contracts/NftMarketplace.sol:NftMarketplace",
            "label": "id",
            "offset": 0,
            "slot": "4",
            "type": "t_uint256"
          }
        ],
        "numberOfBytes": "160"
      },
      "t_struct(Set)2026_storage": {
        "encoding": "inplace",
        "label": "struct EnumerableSet.Set",
        "members": [
          {
            "astId": 2021,
            "contract": "contracts/NftMarketplace.sol:NftMarketplace",
            "label": "_values",
            "offset": 0,
            "slot": "0",
            "type": "t_array(t_bytes32)dyn_storage"
          },
          {
            "astId": 2025,
            "contract": "contracts/NftMarketplace.sol:NftMarketplace",
            "label": "_indexes",
            "offset": 0,
            "slot": "1",
            "type": "t_mapping(t_bytes32,t_uint256)"
          }
        ],
        "numberOfBytes": "64"
      },
      "t_struct(UintSet)2484_storage": {
        "encoding": "inplace",
        "label": "struct EnumerableSet.UintSet",
        "members": [
          {
            "astId": 2483,
            "contract": "contracts/NftMarketplace.sol:NftMarketplace",
            "label": "_inner",
            "offset": 0,
            "slot": "0",
            "type": "t_struct(Set)2026_storage"
          }
        ],
        "numberOfBytes": "64"
      },
      "t_uint256": {
        "encoding": "inplace",
        "label": "uint256",
        "numberOfBytes": "32"
      }
    }
  }
}