{
  "address": "0x741f30E7F3bb8CB04E943E561034cb2aAF6Dc200",
  "abi": [
    {
      "inputs": [],
      "stateMutability": "nonpayable",
      "type": "constructor"
    },
    {
      "inputs": [
        {
          "internalType": "uint8",
          "name": "",
          "type": "uint8"
        }
      ],
      "name": "candidates",
      "outputs": [
        {
          "internalType": "uint256",
          "name": "id",
          "type": "uint256"
        },
        {
          "internalType": "string",
          "name": "name",
          "type": "string"
        },
        {
          "internalType": "uint256",
          "name": "voteCount",
          "type": "uint256"
        }
      ],
      "stateMutability": "view",
      "type": "function"
    },
    {
      "inputs": [],
      "name": "candidatesCount",
      "outputs": [
        {
          "internalType": "uint8",
          "name": "",
          "type": "uint8"
        }
      ],
      "stateMutability": "view",
      "type": "function"
    },
    {
      "inputs": [],
      "name": "getCandidatesList",
      "outputs": [
        {
          "components": [
            {
              "internalType": "uint256",
              "name": "id",
              "type": "uint256"
            },
            {
              "internalType": "string",
              "name": "name",
              "type": "string"
            },
            {
              "internalType": "uint256",
              "name": "voteCount",
              "type": "uint256"
            }
          ],
          "internalType": "struct Election.Candidate[]",
          "name": "",
          "type": "tuple[]"
        }
      ],
      "stateMutability": "view",
      "type": "function"
    },
    {
      "inputs": [],
      "name": "getVotersList",
      "outputs": [
        {
          "components": [
            {
              "internalType": "address",
              "name": "voter",
              "type": "address"
            },
            {
              "internalType": "uint256",
              "name": "votedOn",
              "type": "uint256"
            }
          ],
          "internalType": "struct Election.Voter[]",
          "name": "",
          "type": "tuple[]"
        }
      ],
      "stateMutability": "view",
      "type": "function"
    },
    {
      "inputs": [
        {
          "internalType": "address",
          "name": "user",
          "type": "address"
        }
      ],
      "name": "isVoter",
      "outputs": [
        {
          "internalType": "bool",
          "name": "",
          "type": "bool"
        }
      ],
      "stateMutability": "view",
      "type": "function"
    },
    {
      "inputs": [],
      "name": "totalVotes",
      "outputs": [
        {
          "internalType": "uint256",
          "name": "",
          "type": "uint256"
        }
      ],
      "stateMutability": "view",
      "type": "function"
    },
    {
      "inputs": [
        {
          "internalType": "uint8",
          "name": "_candidateId",
          "type": "uint8"
        }
      ],
      "name": "vote",
      "outputs": [],
      "stateMutability": "nonpayable",
      "type": "function"
    },
    {
      "inputs": [
        {
          "internalType": "address",
          "name": "",
          "type": "address"
        }
      ],
      "name": "voters",
      "outputs": [
        {
          "internalType": "address",
          "name": "voter",
          "type": "address"
        },
        {
          "internalType": "uint256",
          "name": "votedOn",
          "type": "uint256"
        }
      ],
      "stateMutability": "view",
      "type": "function"
    }
  ],
  "transactionHash": "0xd315d471bcb9d12d6634e7bd1a6a353dbd5dfc89e771be1b89b28f7920f3cef5",
  "args": [],
  "numDeployments": 4,
  "solcInputHash": "6e8a54307aa60fc83d99194de31ece09",
  "bytecode": "0x60806040523480156200001157600080fd5b50620000586040518060400160405280601081526020017f4173696620416c69205a61726461726900000000000000000000000000000000815250620000ea60201b60201c565b6200009e6040518060400160405280600a81526020017f496d72616e204b68616e00000000000000000000000000000000000000000000815250620000ea60201b60201c565b620000e46040518060400160405280600d81526020017f4e6177617a205368617265656600000000000000000000000000000000000000815250620000ea60201b60201c565b62000333565b6004600081819054906101000a900460ff16809291906200010b906200029f565b91906101000a81548160ff021916908360ff160217905550506040518060600160405280600460009054906101000a900460ff1660ff168152602001828152602001600081525060036000600460009054906101000a900460ff1660ff1660ff168152602001908152602001600020600082015181600001556020820151816001019080519060200190620001a2929190620001b3565b506040820151816002015590505050565b828054620001c190620002fd565b90600052602060002090601f016020900481019282620001e5576000855562000231565b82601f106200020057805160ff191683800117855562000231565b8280016001018555821562000231579182015b828111156200023057825182559160200191906001019062000213565b5b50905062000240919062000244565b5090565b5b808211156200025f57600081600090555060010162000245565b5090565b7f4e487b7100000000000000000000000000000000000000000000000000000000600052601160045260246000fd5b600060ff82169050919050565b6000620002ac8262000292565b915060ff821415620002c357620002c262000263565b5b600182019050919050565b7f4e487b7100000000000000000000000000000000000000000000000000000000600052602260045260246000fd5b600060028204905060018216806200031657607f821691505b602082108114156200032d576200032c620002ce565b5b50919050565b61106d80620003436000396000f3fe608060405234801561001057600080fd5b50600436106100885760003560e01c8063a3ec138d1161005b578063a3ec138d14610119578063a7771ee31461014a578063b3f98adc1461017a578063bc86f3851461019657610088565b80630d15fd771461008d5780632d35a8a2146100ab5780634aba5f34146100c95780636d6277f4146100e7575b600080fd5b6100956101b4565b6040516100a291906108ab565b60405180910390f35b6100b36101ba565b6040516100c091906108e2565b60405180910390f35b6100d16101cd565b6040516100de9190610ab7565b60405180910390f35b61010160048036038101906100fc9190610b0a565b61035a565b60405161011093929190610b81565b60405180910390f35b610133600480360381019061012e9190610c1d565b61040c565b604051610141929190610c59565b60405180910390f35b610164600480360381019061015f9190610c1d565b610450565b6040516101719190610c9d565b60405180910390f35b610194600480360381019061018f9190610b0a565b6104eb565b005b61019e6107b2565b6040516101ab9190610da5565b60405180910390f35b60005481565b600460009054906101000a900460ff1681565b60606000600367ffffffffffffffff8111156101ec576101eb610dc7565b5b60405190808252806020026020018201604052801561022557816020015b610212610871565b81526020019060019003908161020a5790505b50905060005b600460009054906101000a900460ff1660ff168160ff16101561035257600360006001836102599190610e25565b60ff1660ff1681526020019081526020016000206040518060600160405290816000820154815260200160018201805461029290610e8b565b80601f01602080910402602001604051908101604052809291908181526020018280546102be90610e8b565b801561030b5780601f106102e05761010080835404028352916020019161030b565b820191906000526020600020905b8154815290600101906020018083116102ee57829003601f168201915b50505050508152602001600282015481525050828260ff168151811061033457610333610ebd565b5b6020026020010181905250808061034a90610eec565b91505061022b565b508091505090565b600360205280600052604060002060009150905080600001549080600101805461038390610e8b565b80601f01602080910402602001604051908101604052809291908181526020018280546103af90610e8b565b80156103fc5780601f106103d1576101008083540402835291602001916103fc565b820191906000526020600020905b8154815290600101906020018083116103df57829003601f168201915b5050505050908060020154905083565b60016020528060005260406000206000915090508060000160009054906101000a900473ffffffffffffffffffffffffffffffffffffffff16908060010154905082565b60008073ffffffffffffffffffffffffffffffffffffffff16600160008473ffffffffffffffffffffffffffffffffffffffff1673ffffffffffffffffffffffffffffffffffffffff16815260200190815260200160002060000160009054906101000a900473ffffffffffffffffffffffffffffffffffffffff1673ffffffffffffffffffffffffffffffffffffffff1614159050919050565b600073ffffffffffffffffffffffffffffffffffffffff16600160003373ffffffffffffffffffffffffffffffffffffffff1673ffffffffffffffffffffffffffffffffffffffff16815260200190815260200160002060000160009054906101000a900473ffffffffffffffffffffffffffffffffffffffff1673ffffffffffffffffffffffffffffffffffffffff16146105bc576040517f08c379a00000000000000000000000000000000000000000000000000000000081526004016105b390610f62565b60405180910390fd5b60008160ff161180156105e45750600460009054906101000a900460ff1660ff168160ff1611155b610623576040517f08c379a000000000000000000000000000000000000000000000000000000000815260040161061a90610fce565b60405180910390fd5b600060405180604001604052803373ffffffffffffffffffffffffffffffffffffffff16815260200142815250905080600160003373ffffffffffffffffffffffffffffffffffffffff1673ffffffffffffffffffffffffffffffffffffffff16815260200190815260200160002060008201518160000160006101000a81548173ffffffffffffffffffffffffffffffffffffffff021916908373ffffffffffffffffffffffffffffffffffffffff16021790555060208201518160010155905050600281908060018154018082558091505060019003906000526020600020906002020160009091909190915060008201518160000160006101000a81548173ffffffffffffffffffffffffffffffffffffffff021916908373ffffffffffffffffffffffffffffffffffffffff160217905550602082015181600101555050600360008360ff1660ff168152602001908152602001600020600201600081548092919061079290610fee565b91905055506000808154809291906107a990610fee565b91905055505050565b60606002805480602002602001604051908101604052809291908181526020016000905b8282101561086857838290600052602060002090600202016040518060400160405290816000820160009054906101000a900473ffffffffffffffffffffffffffffffffffffffff1673ffffffffffffffffffffffffffffffffffffffff1673ffffffffffffffffffffffffffffffffffffffff168152602001600182015481525050815260200190600101906107d6565b50505050905090565b60405180606001604052806000815260200160608152602001600081525090565b6000819050919050565b6108a581610892565b82525050565b60006020820190506108c0600083018461089c565b92915050565b600060ff82169050919050565b6108dc816108c6565b82525050565b60006020820190506108f760008301846108d3565b92915050565b600081519050919050565b600082825260208201905092915050565b6000819050602082019050919050565b61093281610892565b82525050565b600081519050919050565b600082825260208201905092915050565b60005b83811015610972578082015181840152602081019050610957565b83811115610981576000848401525b50505050565b6000601f19601f8301169050919050565b60006109a382610938565b6109ad8185610943565b93506109bd818560208601610954565b6109c681610987565b840191505092915050565b60006060830160008301516109e96000860182610929565b5060208301518482036020860152610a018282610998565b9150506040830151610a166040860182610929565b508091505092915050565b6000610a2d83836109d1565b905092915050565b6000602082019050919050565b6000610a4d826108fd565b610a578185610908565b935083602082028501610a6985610919565b8060005b85811015610aa55784840389528151610a868582610a21565b9450610a9183610a35565b925060208a01995050600181019050610a6d565b50829750879550505050505092915050565b60006020820190508181036000830152610ad18184610a42565b905092915050565b600080fd5b610ae7816108c6565b8114610af257600080fd5b50565b600081359050610b0481610ade565b92915050565b600060208284031215610b2057610b1f610ad9565b5b6000610b2e84828501610af5565b91505092915050565b600082825260208201905092915050565b6000610b5382610938565b610b5d8185610b37565b9350610b6d818560208601610954565b610b7681610987565b840191505092915050565b6000606082019050610b96600083018661089c565b8181036020830152610ba88185610b48565b9050610bb7604083018461089c565b949350505050565b600073ffffffffffffffffffffffffffffffffffffffff82169050919050565b6000610bea82610bbf565b9050919050565b610bfa81610bdf565b8114610c0557600080fd5b50565b600081359050610c1781610bf1565b92915050565b600060208284031215610c3357610c32610ad9565b5b6000610c4184828501610c08565b91505092915050565b610c5381610bdf565b82525050565b6000604082019050610c6e6000830185610c4a565b610c7b602083018461089c565b9392505050565b60008115159050919050565b610c9781610c82565b82525050565b6000602082019050610cb26000830184610c8e565b92915050565b600081519050919050565b600082825260208201905092915050565b6000819050602082019050919050565b610ced81610bdf565b82525050565b604082016000820151610d096000850182610ce4565b506020820151610d1c6020850182610929565b50505050565b6000610d2e8383610cf3565b60408301905092915050565b6000602082019050919050565b6000610d5282610cb8565b610d5c8185610cc3565b9350610d6783610cd4565b8060005b83811015610d98578151610d7f8882610d22565b9750610d8a83610d3a565b925050600181019050610d6b565b5085935050505092915050565b60006020820190508181036000830152610dbf8184610d47565b905092915050565b7f4e487b7100000000000000000000000000000000000000000000000000000000600052604160045260246000fd5b7f4e487b7100000000000000000000000000000000000000000000000000000000600052601160045260246000fd5b6000610e30826108c6565b9150610e3b836108c6565b92508260ff03821115610e5157610e50610df6565b5b828201905092915050565b7f4e487b7100000000000000000000000000000000000000000000000000000000600052602260045260246000fd5b60006002820490506001821680610ea357607f821691505b60208210811415610eb757610eb6610e5c565b5b50919050565b7f4e487b7100000000000000000000000000000000000000000000000000000000600052603260045260246000fd5b6000610ef7826108c6565b915060ff821415610f0b57610f0a610df6565b5b600182019050919050565b7f416c726561647920766f74656400000000000000000000000000000000000000600082015250565b6000610f4c600d83610b37565b9150610f5782610f16565b602082019050919050565b60006020820190508181036000830152610f7b81610f3f565b9050919050565b7f6e6f7420612076616c696420637573746f6d6572204944000000000000000000600082015250565b6000610fb8601783610b37565b9150610fc382610f82565b602082019050919050565b60006020820190508181036000830152610fe781610fab565b9050919050565b6000610ff982610892565b91507fffffffffffffffffffffffffffffffffffffffffffffffffffffffffffffffff82141561102c5761102b610df6565b5b60018201905091905056fea2646970667358221220ee6431de01716db5572484c7746f85fd8af4675854af375f2f768d8e86e0074764736f6c63430008090033",
  "devdoc": {
    "kind": "dev",
    "methods": {},
    "version": 1
  },
  "userdoc": {
    "kind": "user",
    "methods": {},
    "version": 1
  },
  "storageLayout": {
    "storage": [
      {
        "astId": 15,
        "contract": "contracts/Election.sol:Election",
        "label": "totalVotes",
        "offset": 0,
        "slot": "0",
        "type": "t_uint256"
      },
      {
        "astId": 20,
        "contract": "contracts/Election.sol:Election",
        "label": "voters",
        "offset": 0,
        "slot": "1",
        "type": "t_mapping(t_address,t_struct(Voter)13_storage)"
      },
      {
        "astId": 24,
        "contract": "contracts/Election.sol:Election",
        "label": "votersList",
        "offset": 0,
        "slot": "2",
        "type": "t_array(t_struct(Voter)13_storage)dyn_storage"
      },
      {
        "astId": 29,
        "contract": "contracts/Election.sol:Election",
        "label": "candidates",
        "offset": 0,
        "slot": "3",
        "type": "t_mapping(t_uint8,t_struct(Candidate)8_storage)"
      },
      {
        "astId": 31,
        "contract": "contracts/Election.sol:Election",
        "label": "candidatesCount",
        "offset": 0,
        "slot": "4",
        "type": "t_uint8"
      }
    ],
    "types": {
      "t_address": {
        "encoding": "inplace",
        "label": "address",
        "numberOfBytes": "20"
      },
      "t_array(t_struct(Voter)13_storage)dyn_storage": {
        "base": "t_struct(Voter)13_storage",
        "encoding": "dynamic_array",
        "label": "struct Election.Voter[]",
        "numberOfBytes": "32"
      },
      "t_mapping(t_address,t_struct(Voter)13_storage)": {
        "encoding": "mapping",
        "key": "t_address",
        "label": "mapping(address => struct Election.Voter)",
        "numberOfBytes": "32",
        "value": "t_struct(Voter)13_storage"
      },
      "t_mapping(t_uint8,t_struct(Candidate)8_storage)": {
        "encoding": "mapping",
        "key": "t_uint8",
        "label": "mapping(uint8 => struct Election.Candidate)",
        "numberOfBytes": "32",
        "value": "t_struct(Candidate)8_storage"
      },
      "t_string_storage": {
        "encoding": "bytes",
        "label": "string",
        "numberOfBytes": "32"
      },
      "t_struct(Candidate)8_storage": {
        "encoding": "inplace",
        "label": "struct Election.Candidate",
        "members": [
          {
            "astId": 3,
            "contract": "contracts/Election.sol:Election",
            "label": "id",
            "offset": 0,
            "slot": "0",
            "type": "t_uint256"
          },
          {
            "astId": 5,
            "contract": "contracts/Election.sol:Election",
            "label": "name",
            "offset": 0,
            "slot": "1",
            "type": "t_string_storage"
          },
          {
            "astId": 7,
            "contract": "contracts/Election.sol:Election",
            "label": "voteCount",
            "offset": 0,
            "slot": "2",
            "type": "t_uint256"
          }
        ],
        "numberOfBytes": "96"
      },
      "t_struct(Voter)13_storage": {
        "encoding": "inplace",
        "label": "struct Election.Voter",
        "members": [
          {
            "astId": 10,
            "contract": "contracts/Election.sol:Election",
            "label": "voter",
            "offset": 0,
            "slot": "0",
            "type": "t_address"
          },
          {
            "astId": 12,
            "contract": "contracts/Election.sol:Election",
            "label": "votedOn",
            "offset": 0,
            "slot": "1",
            "type": "t_uint256"
          }
        ],
        "numberOfBytes": "64"
      },
      "t_uint256": {
        "encoding": "inplace",
        "label": "uint256",
        "numberOfBytes": "32"
      },
      "t_uint8": {
        "encoding": "inplace",
        "label": "uint8",
        "numberOfBytes": "1"
      }
    }
  }
}